:020000040800F2
:10000000000400207500000881000008810000083D
:10001000A70B090100000000010120570040000863
:10002000040800008B0A00084D0D00087805000840
:1000300000000000000000000000000000000000C0
:10004000000000000000000000000000BC010000F3
:10005000FFFFFFFF05480068202100EA010020B1F2
:100060000348016842688D46104770472C000040E5
:1000700000400008FFF7EEFF00F00DF800F042F836
:1000800005E00000854670474548008870474FF4FA
:10009000017000F09FB838B54FF20F04414D00F0E9
:1000A000C7F828B140F2052028806C80012032BDBD
:1000B0003D480068C00615D56888A0421ED1288832
:1000C00040F2022188421CBF40F20621884215D02E
:1000D00040F2011188421EBFB0F58A7F40F2111133
:1000E00088420BD0314C208A40F6A721884205D1A6
:1000F0002068FFF7C7FF6068804700BF002032BD5F
:100100000000000038B50400294872B601684908AB
:100110004900016000F0D2F823480068000910F09F
:1001200001000CBF2349244902E0CD2201F8012B34
:10013000224A9142F9D32249224A234B03E011F883
:10014000015B02F8015B9A42F9D32049204A00235F
:1001500001E001F8013B9142FBD3124A53884FF270
:100160000F05AB4240F205210AD113888B4205D01E
:1001700030B1180A012818BF022801D1194601E040
:1001800004B90021064801804CF23C30508000F058
:10019000C9F94FF40170BDE8324000F01BB800000F
:1001A000240C0020000000202C000040004000082B
:1001B000FCED00E00000002098000020000400207A
:1001C000F8110008000400200404002004040020AA
:1001D0002D0C00200E4A302111600E4A11600E4A8B
:1001E000116010210D4A1160010A00290C4908BF55
:1001F000000208804FF20F004880BFF35F8F09486C
:10020000002101604160084808490860704700000B
:100210003020004030C8004030C0004010E00040B6
:10022000000000201C4000400400FA050CED00E036
:100230000020704780B500F0B8F90121062000F0D9
:10024000C1F9062000F0EEF90121072000F0BAF90B
:10025000072000F0DBF91748016821F01001016068
:1002600001BD0000052800D9704710B5DFE800F097
:100270001721030F1C17104C2088411E2180C0B984
:10028000072000F0DBF942F21070208010BD07203B
:1002900000F0C8F9BDE81040062000F0CFB9BDE875
:1002A0001040062000F0B2B9BDE81040062000F072
:1002B000B9B910BD00BC0040260C00207A4951207D
:1002C0000860704738B5054600F062F97749B0FB21
:1002D000F1F44FF4F070B0FBF4F02D1A1E2DBCBFFA
:1002E0004FF40170FFF776FF7148724A07210160F1
:1002F0000021416081604FF00071116005FB04F145
:10030000C91C8908491E416031BD6B4A01215170E9
:10031000D8E76B48016841F00101016001214160AB
:100320005120614908607047002070472DE9F0476F
:10033000624D614E2968814640F2DC580129C2466F
:100340005B48604F604C1DDA0221618039600068B3
:10035000C00348BF00F08FF8B86900F0030003281D
:1003600061D02868002803D5B86940F00200B86160
:100370004846FFF7D9FF5FEA000A1BD1286800282A
:1003800051D54EE061884FF6FF75A9421DD14F4807
:10039000018802237F22A01C00F066F96088A84231
:1003A00004BF02206080B869800703D4B86940F0B8
:1003B0000200B8610120B070608838600FFA8AF0DE
:1003C000FFF7A3FF5046BDE8F087B9698907EDD56F
:1003D0000068C00348BF00F04EF8B07808B140464E
:1003E000F1E7B868B968628810F0010003D10F2AFC
:1003F00008D2521C06E0890704D5217811B1032ADE
:10040000A8BFAA1892B2022A2070B8BF0222628046
:10041000386861888842CDD1B86900F003000328AC
:1004200001D0FFF776FF0020CDE710B5044628483D
:10043000017869B9C078072818BF092813D00328A4
:1004400018BF11280FD013281CBF15280B280AD05D
:100450002048016841F48071016004E000F03AF93D
:100460000620FFF761FF2046FFF760FF0028F5D167
:1004700010BD0220D9E70E480E4A0021416081607C
:10048000016821F00201016000210B4841704FF02A
:1004900000711160817801B9704780B500218170C9
:1004A0000620FFF741FF01BD0080004090D003000F
:1004B00010E000E004ED00E0280C0020F01100083E
:1004C0001C4000400440004000040020F4110008DB
:1004D00096070808384000400078704730B5DBB018
:1004E0000446214636A800F047F9002000904FF45A
:1004F00002630B4A36A901A800F0C7FA0FF26C029A
:100500000FF2740001A900F021FC054600F056F836
:100510001DB12146284600F07FF928465BB030BD6A
:100520000404002080B5FFF7A4FFFFF7ADFDB0F590
:100530008A7F09D100F02AFC00F08EFC0028FBD055
:1005400040F21110FFF746FEFFF774FE00F01EFCAC
:1005500000F0A8FC40F20120FFF73CFE002002BDA5
:10056000012A08BF00F027BC70470000671100088F
:10057000A3110008D9040008D9090008110A0008CD
:100580001A480068C00701D41948704719487047D5
:1005900080B5FFF7F5FF1849096801B9400802BDA9
:1005A00080B5FFF7EDFF400802BD144801218160CE
:1005B0004EF6BE21416001210160704710490120C3
:1005C00008607047C208430710B54CBF0D4B0E4B77
:1005D00003EB422200F00300800013680F248440E4
:1005E000A34301FA00F01843106010BD1C40004006
:1005F000001BB70000366E01204000400060004044
:100600000860004004B0004000B00040C108032969
:1006100007DA012100F007029140C00840020F4AAA
:1006200011507047C108032907DA012100F00702C1
:100630009140C00840020A4A11507047C10803297E
:100640000ADA084A02EB412101230A6800F0070098
:1006500003FA00F0504008607047000014B00040FA
:1006600010B000400CB0004030B5044610467F2862
:1006700008BF00204BF23462914283B01AD10823A4
:100680007F2240F6120100A8FFF7EEFF08220FF2CA
:100690003C0100A800F021FD30B908237F2240F280
:1006A000A27100A8FFF7E0FF082200A9204600F091
:1006B000FBFC37BD044D294300FB03111A462046BD
:1006C00000F0F2FC37BD000000000808FFFFFFFF4C
:1006D000FFFFFFFF70B5234C25680646FFF760FF5C
:1006E0002149B0FBF1F070432F303021B0FBF1F025
:1006F000032809D3616D41F0010161652168491B3F
:100700000903090B8142F9D370BD38B50C4620B1FD
:1007100001280FD0032820D021E0144D44B1FFF769
:100720003FFF1349B0FBF1F0401EB0F5005F0CD263
:10073000286012E04CB1FFF733FF610801EB400085
:10074000B0FBF4F0B0F5003F01D3202032BD0949E1
:1007500000F001024A6040080860002032BD2120FC
:1007600032BD00003820004090D00300100004E0AB
:1007700020A1070068C800400170012242700129D1
:1007800082700CBF8021402181800021C1800181C5
:100790001F4801600E218162016821F01001016093
:1007A0000021416341627047F8B50D46044619497E
:1007B000174F4FF0FF3008601646FE620020786247
:1007C000386840F001003860FFF7F8FE012C11D1C5
:1007D00035B900F041FB00F0010080F0010002E0BB
:1007E000284600F041FB38B93868400840003860BE
:1007F0000020F2BD0120F2BD786AB042E4D3002EA1
:10080000E2D038684008400038601620F2BD000091
:1008100000F0004000A8004038B504460D4600F046
:1008200009F800F007F82A462146BDE838401820AC
:10083000FFF796BE2A4621461820FFF791BE38B52D
:100840000446002020814AF6B432207800A9FFF740
:10085000ABFF08B11C2032BD9DF80000032818BF73
:10086000182801D1182032BD042801D1172032BD2B
:10087000012801D0212032BD002500E06D1CA18897
:10088000EDB2091D8D420BDA281900F10A0120781A
:1008900040F2DD22FFF788FF0028EFD0262032BD8E
:1008A0000025002006E00146EDB22819007B00F08B
:1008B00027FC6D1CA188EAB28A42F4D3A27AE37ABB
:1008C0009B18FF2B01D0222032BD0B191D7BB5EBED
:1008D000102F01D0232032BD5B7BC0B2834201D0F8
:1008E000242032BDA078824207D0401EC0B282428E
:1008F00001D1272032BD252032BD881C2081022055
:10090000E080002032BD38B504466078012804D06C
:1009100028D3032859D01DD324E02078012816D1EC
:100920003B2500A800F0A0FA0028FAD0432000F0F0
:1009300042FA207840F2DD220021FFF735FF30B186
:100940002846451EC0B20028F0D11B2032BD02202F
:1009500060700FE000F09AFA00F039F8A078401CBF
:10096000A07007E0182032BDA0782278411EC9B2DD
:1009700000F02FF82046FFF762FF050018BF00F0D7
:1009800085FA272DF0D0A8060BD52278A17815205E
:10099000FFF7E6FD002DEDD10320FFF763FC0020FB
:1009A00032BD680603D4182D18BF1C2D07D121783D
:1009B0002846FFF731FF04206070284632BD172D0E
:1009C000E8D100F004F803206070172032BD2278CF
:1009D000A1780620FFF7C4BDF8B504460D461646BB
:1009E000002706E0E088411C0019E180807A7855F4
:1009F0007F1CBFB2B74209D2E08821898842F1D377
:100A00002046FFF780FF0028ECD0F2BD0020F2BDA9
:100A100010B504462046FFF776FF0028FAD010BD37
:100A2000F8B504460D4616461F4607E03046A04777
:100A3000294600F077FB05467F1E761CBFB2002FCB
:100A4000F4D12846F2BD38B50C46154605E00146FE
:100A500014F8010B00F066FB6D1EADB2002DF6D14F
:100A600032BDF8B504460D461F4616462868236871
:100A70003A4631469847040005D1E8683A4631467F
:100A8000FFF7E1FFE8602046F2BD10B5029C8472DA
:100A90000381426001604FF0FF31C16000210174A9
:100AA00010BD2DE9F84F8946044699F81BB0D0686F
:100AB000A249BBF1800FA8BF4FF0800B88421E46B1
:100AC00051D1002E4DD0B06800904FF0FF38002576
:100AD00009EB450A9AF848700DE0FFF76FFDF80240
:100AE00040F0006200984FF400634146FFF798FF22
:100AF0008046781CC7B20AF148004078B84204DA50
:100B0000681CC5B2062D02DAE2E7FF2FE5D1D9F85D
:100B100044006FEA0801884225D1A068736800BAD2
:100B20004FEA5B0249469847C8B9E06805BAA06831
:100B300002BAB0685B464FF0FF31FFF771FFC04368
:100B400085420CD140F6A720A9F810000122A06828
:100B5000736800BA09F110011030984708B14220BB
:100B600002E0172000E04320BDE8F28F2DE9F04FAE
:100B70000D4683B08046D5F804A02889ADF804005E
:100B8000914605F1140606F110070423524640462B
:100B9000FFF767FF00286ED1BAF8000040BA80B2B4
:100BA0000090BAF8020040BA84B2E00748BF46207D
:100BB00061D4B4F5026FC8BF4E205CDC002C59D064
:100BC0000098DFF87CB148B14FF60441401A00F0BC
:100BD0009C80FF3853D0FE3851D0ACE0287C08B15F
:100BE000512048E08D2C28BF4F2044D22346321D8F
:100BF00000F0A9F800283ED1FA7E802AA8BF802202
:100C000002F10C00844201BFB08840BA00F47F407A
:100C1000B0F5007F31D1F08840BA4EF250318842B1
:100C200002BF388A40F6A721884226D1788A00F48C
:100C30007F40B0F5807F01BFB06800BADBF81C10C0
:100C400088421AD14FF6FF70388206F110014FF03A
:100C5000FF30FFF7F8FEF16809BAC943884204BFC4
:100C6000387E042809D1787E082818BF062804D1C8
:100C7000012028740020BDE8FE8F4520FBE7287C7A
:100C8000002844D0042300F05DF80028F3D1DAF8FE
:100C9000000006BA201F84B2DBF81C00864238BF71
:100CA0004820E8D3796DA019884228BF4920E2D2B4
:100CB00000984FF6035188420DD1B9F1000F0AD0C8
:100CC000D9F8002031460220904720B14A20D2E7CF
:100CD000E01B84B2BE19002CCCD0BDF804008442C5
:100CE000B4BF274607463B4600F02CF80028C2D187
:100CF000B9F1000FECD0D9F804307A0851463046EB
:100D000098470028E4D04B20B5E7287C08B941205B
:100D1000B1E7042C18BF4C20ADD16A68042300F061
:100D200012F80028A7D14B462A463946304603B070
:100D3000BDE8F04FB5E644209DE70000E320BBDEB0
:100D4000000000085246294640468AE670B50D4626
:100D500004462889C107164601D4802803DA4F20AB
:100D600070BDA87A78B9324629462046FFF7FEFEC4
:100D70000028F6D0172807D1286861688847172807
:100D800002D1002070BD502070BD000080B54FF42E
:100D9000E1310120FFF7B9FC3948022181600121CE
:100DA000016009200921FFF70DFCBDE80440042182
:100DB0000A20FFF707BC3449CA685207FCD508600F
:100DC000704710B5044603E014F8010BFFF7F3FF7A
:100DD00020780028F8D110BD30B583B00FF2BC02E6
:100DE00018CA00A9042218C1052100AD0DE080B287
:100DF0000A2390FBF3F30A2404FB1304E4B218461D
:100E000004F130034B5504B10A46491E49B200298A
:100E1000EDD500A8D2B21018FFF7D3FF37BD10B53B
:100E2000044620090A28ACBF37303030C0B2FFF783
:100E3000C2FF04F00F000A28BDE81040ACBF3730F5
:100E40003030C0B2B7E710B50446200AFFF7E7FF1D
:100E5000E0B2BDE81040E2E70A480068800701D52B
:100E6000012070470020704710B50446FFF7F4FFDB
:100E700020B1054800682070002010BD012010BD81
:100E800054C8004048C800403CC8004080B500A895
:100E9000FFF7EAFF0028FAD001BD00003030303003
:100EA000300000002DE9F84FFFF788FBFFF7EEFF59
:100EB0000020FFF7D7F90FF26C18474D0FF2381BDF
:100EC000DFF818910FF2181A41A642A41EE050460E
:100ED000FFF777FF0C27B9F81A00F84000F00F0071
:100EE000FFF77AFF012FA4BF2E20FFF764FF3F1FFB
:100EF000F1D52046FFF765FF09F11A00408EFFF794
:100F00006BFF5846FFF75DFFFFF7C0FFFFF756FB8B
:100F10000220FFF7A7F900A8FFF7A6FF0028F5D1E8
:100F20009DF80000FFF747FF9DF800000A2818BF52
:100F30000D28CCD0312804D032282ED0332831D0FF
:100F4000E2E70FF2F000FFF73CFF0120FFF7C6FADF
:100F500007460FF2F400FFF734FF2FB90520FFF723
:100F600081F90FF2F800CDE70420FFF77BF90FF2CB
:100F7000F800FFF726FFB80648BF0FF2F80005D4C7
:100F800078064CBF0FF204100FF21010FFF719FF94
:100F90003846FFF758FF3046B4E70120FFF762F903
:100FA000BDE8F18F00273046FFF70BFF288A40F697
:100FB000A721884218BF4046A4D178197F1C90F819
:100FC000240020B1FFF7F7FEFFB2202FF5DBE2E7A8
:100FD0000D0A000020620000004000080000000828
:100FE0000D0A45465220333253657269616C2042C6
:100FF000746C2076000000000D0A312E2075706C94
:101000006F61642065626C0D0A322E2072756E0D60
:101010000A332E2065626C20696E666F0D0A424CA1
:10102000203E20002A2A206E6F20617070202A2A1C
:101030000D0A00000D0A626567696E2075706C6F9D
:1010400061640D0A000000000D0A53657269616C4D
:101050002075706C6F61642000000000636F6D701C
:101060006C6574650D0A000061626F727465640DD1
:101070000A0000000D0A584D6F64656D20626C6FA8
:10108000636B206572726F72203078000D0A66699A
:101090006C65206572726F72203078000D0A65727F
:1010A000726F722030780000814212D210185118ED
:1010B000401E491E92B2002A1EBF11F8013900F8E5
:1010C0000139521EF6D1704711F8013B00F8013B7F
:1010D000521E92B2002AF7D1704710B500E0521E9E
:1010E00092B222B100F005F8F9D0181B10BD002013
:1010F00010BD10F8013B11F8014BA34270470000EE
:101100000A0242EA11214840C0F30311484080EA34
:10111000003041010206C9B2D20E41EA0221484024
:1011200080B270470A0A4840C0B208214308C0078D
:1011300046BF034858401846491EF7D150407047F3
:101140002083B8ED2748018A40F6A772914202BF7A
:10115000408A4FF47F41084203D1022801DB01207D
:10116000704700207047F8B504461D4E01200D461B
:101170003070FFF7E7FF18B94FF40170FFF72AF856
:1011800029461848876A44F48070B84700213170B6
:101190000FF2540618B9294644F40070B847805D30
:1011A000F2BD2DE9F041044688465600FFF7CAFF1C
:1011B00018B94FF40170FFF70DF80A48476A002389
:1011C000324641462046B8470FF21C0520B9334647
:1011D000002241462046B847405DBDE8F08100004E
:1011E0002C0C002000000808000202024B4B46476E
:1011F00000366E01EE0800000100FFFFFFFFFFFF59
:10120000FFFFFFFFFFFFFFFFFFFFFFFFFFFFFFFFEE
:10121000FFFFFFFFFFFFFFFFFFFFFFFFFFFFFFFFDE
:10122000FFFFFFFFFFFFFFFFFFFFFFFFFFFFFFFFCE
:10123000FFFFFFFFFFFFFFFFFFFFFFFFFFFFFFFFBE
:10400000A0F100205D780208D5770208D977020870
:10401000A70A090100410008040803AC2057BC01AD
:104020000FE823570000000000000000000000001F
:104030000000000000000000000000000000000080
:1040400000000000693CA9B40850FFFFFFFFFFFF1C
:10405000FFFFFFFF007007080000000000000000E5
:1040600057A36237A2705ADEFFFFFFFFFFFFFFFF7B
:10407000FFFFFFFFFFFFFFFFFFFFFFFFFFFFFFFF50
:10408000F0FF002000000000E9FF0020E9FF002011
:10409000A0F100205C8202081C7B020840E800209E
:1040A000EC0F00200000080800000120FFFFFFFFC8
:1040B000FFFFFFFFFFFFFFFFFFFFFFFFFFFFFFFF10
:1040C000FFFFFFFFFFFFFFFFFFFFFFFFFFFFFFFF00
:1040D000FFFFFFFFFFFFFFFFFFFFFFFFFFFFFFFFF0
:1040E000FFFFFFFFFFFFFFFFFFFFFFFFFFFFFFFFE0
:1040F000FFFFFFFFFFFFFFFFFFFFFFFFFFFFFFFFD0
:10410000A0F100205D780208D5770208D97702086F
:10411000E1770208DD770208E57702085C7802089B
:104120005C7802085C7802085C7802085C78020817
:10413000E97702085C7802085C7802086F2D0208B3
:104140009D7702085C780208174202085C78020832
:104150002FFB0108574102085C7802085C780208CE
:1041600061350208A945010813CD0108AD3D0208DB
:104170005C78020877760208BF760208A55001082D
:10418000790B02085C7802085C7802085C78020807
:1041900010B501F007010368012405E010B501F036
:1041A0000301890003680F2400F05AF8016010BD74
:1041B00038B500F0D1F8044600F0CEF8054600F01E
:1041C000CBF800F00102182C05F00F05A8BF36202F
:1041D00038DA4FF4F050E040C00748BF382031D4FF
:1041E000E00803D0022807D003D309E021464B485A
:1041F00004E021464A4801E021464A48FFF7C8FF4B
:10420000A00805281DD8DFE800F003070B0F1317DF
:104210002A462146444812E02A46214643480EE0F9
:104220002A46214642480AE02A462146414806E0FD
:104230002A462146404802E02A4621463F48FFF7E9
:10424000ADFF0020BDE8324000F09FB810B501F08E
:104250000301890003880F2400F002F8018010BDDB
:104260008C40A34302FA01F11943704710B501F0E5
:10427000070103780124FFF7F3FF017010BD2DE95A
:10428000F04100F069F8044600F066F8054600F0D9
:1042900063F8064600F060F8074600F05DF805F0A8
:1042A0000F0200F00108182C06F0010507F00F07B7
:1042B000A8BF362022DA4FF4F050E040C00748BFD4
:1042C00038201BD4600804EB907086081C4800F06E
:1042D00019F81C483A4600F015F8A00804EB507095
:1042E000C70819482A4621463818FFF7BFFF174864
:1042F000424621463818FFF7B9FF0020BDE8F041DB
:1043000000F043B8214600EB46009FE780B500F07F
:104310005FF80F4908400F49086001BD0CB000402C
:104320000CB200400CB4004000B0004004B00040AB
:1043300000B2004004B2004000B4004004B40040A9
:10434000CCF20020D8F20020C4F20020C8F20020F5
:10435000FFE1FF00E4F200202A480168491C0160E7
:1043600011F8010D704738B50446264D08462968F6
:10437000224600F01EFA28682018286031BD214A24
:10438000116840181060084670471F491F4B0A68A3
:104390001B68D31AC82BB8BF10700868401C08608F
:1043A000704710B50446C0B2FFF7EFFF200A49E09E
:1043B00010B5FFF7D1FF00F037F904EB002080B211
:1043C00010BD10B5044680B2FFF7EBFF200CB1E042
:1043D00010B5FFF7EDFF00F05EF804EB004010BDF4
:1043E00038B5094C094A2368126805469A1AAA1872
:1043F000C92A03DA0246184600F0DBF920682818BB
:10440000206031BD30F8002034F8002060FC00202E
:1044100010B5044600F082F9FFF7CAFF2081FFF7CC
:104420009BFFA072FFF798FFE072FFF795FF2073E4
:10443000FFF7BEFFE081FFF78FFF2074FFF7C8FF93
:10444000606110BDBDE810409FE710B500F023F893
:104450002080FFF7ADFF6080FFF77EFF2071FFF740
:104460007BFF6071FFF7A4FFE080FFF7A1FF2081D1
:10447000FFF772FFA07210BD10B500F009F8A07828
:10448000E0E710B500F007F800F007F8A07010BDE5
:104490000446208885E704468AE720805CE710B55B
:1044A00000F0C2F8A070FFF783FF2080211D00F00C
:1044B00036F9FFF751FF00B10120E070FFF74CFF24
:1044C0002073FFF749FF607310BD10B500F0DDF8F1
:1044D0002069BDE8104074E710B500F007F9FFF758
:1044E00077FF206110BD10B5FFF7D5FF208010BD0C
:1044F00020794AE710B50446FFF7D1FF04F1100018
:1045000000F01BF804F11C0100F009F9FFF750FF5F
:10451000A0842434FFF74CFF6080FFF71DFF20715B
:10452000FFF71AFF6071FFF717FFA071FFF714FF85
:10453000E07110BDBDE8104033E710B50446FFF749
:1045400047FF2060FFF744FF6060FFF731FF2081E5
:1045500010BD10B500F011F8A088FFF722FFE08829
:10456000FFF71FFF2089FFF71CFF6089FFF719FF86
:10457000A089FFF716FFA07B64E70446206820E7C8
:1045800010B50446FFF724FF2060FFF711FFA0805D
:10459000FFF70EFFE080FFF70BFF2081FFF708FF1A
:1045A0006081FFF705FFA081FFF7D6FEA07310BD65
:1045B00010B5FFF7E2FFFFF79BFF611D1020FFF72B
:1045C0000FFF04F11501BDE81040102008E710B5F9
:1045D000FFF761FF2080A11C22E010B5044620787F
:1045E000FFF7D3FE611C0F20FFF7FAFE04F1100164
:1045F0000320FFF7F5FE04F11301BDE8104007208A
:10460000EEE610B500F010F82070611C0F20FFF7E7
:10461000AAFE04F110010320FFF7A5FE04F1130127
:10462000BDE8104007209EE6044695E638B500F048
:104630002CF804F1100100F026F8A069FFF7C1FE84
:1046400004F11805A888FFF7ACFEE888FFF7A9FE7B
:104650002889FFF7A6FE6889FFF7A3FE04F124016D
:104660000720FFF7BDFEE87CFFF78FFE287DFFF7F0
:104670008CFE687DFFF789FEA87DFFF786FEE87D4A
:10468000BDE8324081E60820AAE604462146102013
:10469000A6E638B500F02AF804F1100100F03FF862
:1046A000FFF796FEA06104F11805FFF781FEA880D0
:1046B000FFF77EFEE880FFF77BFE2881FFF778FE9C
:1046C000688104F124010720FFF74DFEFFF744FE47
:1046D000E874FFF741FE2875FFF73EFE6875FFF7A7
:1046E0003BFEA875FFF738FEE87531BD044621464C
:1046F000102038E610B5FFF797FF207230B9FFF7AA
:1047000067FE2060FFF764FE206003E0022801D10D
:1047100000F004F8FFF720FE607210BD214608206B
:1047200021E60CB4F8B504460D4606AE07E056F88F
:10473000040B1CB10078FFF722FE38606D1C28784E
:10474000A0B356F8047B622824D07028EFD07328D9
:1047500018BF752804D076280BD0772812D0EDE743
:104760001CB1FFF7F9FD3870E8E73878FFF70DFE68
:10477000E4E71CB1FFF71CFE3880DFE73888FFF75D
:1047800010FEDBE714B1FFF723FED6E73868FFF72A
:1047900018FED3E756F8040B0078002C394602D0F7
:1047A000FFF7E1FDCAE7FFF71BFEC7E7F1BC5DF8C5
:1047B0000CFB814233D210185118401E491E10E0E4
:1047C00011F8013900F80139121F11F8013900F808
:1047D000013911F8013900F8013911F8013900F8EF
:1047E000013992B2042AEBDA92B2002A1EBF11F804
:1047F000013900F80139521EF6D1704711F8013B1A
:1048000000F8013B121F11F8013B00F8013B11F8C1
:10481000013B00F8013B11F8013B00F8013B92B26B
:10482000042AEBDA92B2002A1EBF11F8013B00F80D
:10483000013B521EF6D17047130003D00A461946B9
:1048400000F020B8704710B500E0521E92B222B1BD
:1048500000F012F8F9D0181B10BD002010BD10B5E3
:1048600000E0521E92B22AB100F006F8F9D0181BEF
:1048700040B210BD002010BD10F8013B11F8014BF3
:10488000A342704762F30F2262F31F42401810F0F8
:10489000030308D0C91A1FD3DB0748BF00F8012D56
:1048A00028BF20F8022D130030B4144615461039E5
:1048B00028BF20E93C00FAD8490728BF20E90C00AE
:1048C00048BF40F8042D890028BF20F8022D48BFBA
:1048D00000F8012D30BC7047C91818BF00F8012D31
:1048E000CB0728BF00F8012D7047000010B5044623
:1048F00001F07AF8204602F080F9204602F031FDFE
:104900002046BDE8104003F0DBB902F073BD10B5DE
:10491000044601F0A2F8204602F09EFD204602F077
:1049200089F9204603F0F1F92046BDE8104003F074
:104930007ABB10B500E010B5044601F0E6F8204659
:1049400002F06FFE204602F07BF9204603F0F9F9F1
:10495000204603F0D2FB2046BDE8104003F011BE14
:1049600010B5044601F0FEF8204602F07AFE20461B
:1049700002F07DF9204603F012FA0CE010B504466F
:1049800001F015F9204602F0A9FE204602F06FF969
:10499000204603F021FA204603F0C7FB204603F02F
:1049A00008FE2046BDE8104003F071BB80B504F05E
:1049B0005DF803F0D0F8BDE8014002F0A1B910B5F0
:1049C000044603F0A3FC2046BDE8104003F073BB8F
:1049D0000198704780B504F0BCF8BDE8014003F0D1
:1049E000C1B870472DE9F0471038E428AAB04FF05D
:1049F0000108DFF8B897DFF8B857D6A1D6A4D7A733
:104A0000D7A60FF2603A00F24E87DFE810F02801D7
:104A10004C074C074C070605B703BC034C0789033A
:104A20004C07DA034C074C078903E703EE038903BD
:104A30001C0189034C074C074C074C074C07E50049
:104A4000EB008903550144047401890361049B034D
:104A50004C074C0779017C014C07AD010302D701DB
:104A60003B024C074C074C074C074C074C074C07C4
:104A7000660454024C074C074C074C074C074C0784
:104A80004C07FF004C074C074C074C074C074C07E2
:104A90004C074C074C074C074C074C074C074C077E
:104AA0004C07660289036F049B0379048004960413
:104AB0009E044C07B102C1024C07EB044C07A7044B
:104AC000BF04D4020C054C074C074C070203D30368
:104AD000D402CA04AB030F05E004FB04AB034C078C
:104AE0000A04890324044C074C07850490044C07EE
:104AF0004C077B02760389038903890389038903B1
:104B00007D03890389037E0589034C074C072E0723
:104B10004C074C074C074C078903CC024C074C0749
:104B20003E0489034C07F9034C074C0714054C0756
:104B300089036C054C0589033A0565034C071E0380
:104B400039034C074C074C074C074C0755035C05D1
:104B50008903990687059E05AA054C074C074C0753
:104B6000AE06B3064C07B606C106B205AF054C0744
:104B70004C074C074C074C074C0776064C074C0774
:104B800051064C074C074C074C074C074C07B50522
:104B9000C005C806CB05D5054C074C07F305010633
:104BA000CD064C074C074C07FC064C0704064C0787
:104BB0004C0715064C074C071A06240638068903CD
:104BC0004C0727054C074205720389033F064C0733
:104BD0004C074C074806010701A900A802F060FB3A
:104BE00000F01ABE08208DF809000DF10A0103A893
:104BF00002F094FB8DF8080003AB0DF10A00019060
:104C000002AA0DF109000090BCA1ADE108208DF8C9
:104C10000F000DF10E0200F074FE9DF80E0003ABC4
:104C200005AA04A902F08BFB8DF80D0004AB03A8C4
:104C300002900DF10D020DF10F00019005A80090FA
:104C40000FF6085190E101AB0DF10102ACA100F0AB
:104C500053FE01999DF8010002F080FBA2E10DF1E5
:104C6000150004900DF11E030DF11600039006AA25
:104C70000DF1170002900DF11A00019007A80090A5
:104C800001200FF6D041FFF74CFD9DF81500BDF84F
:104C90001A30BDF81C20BDF81E1002909DF81600B9
:104CA00001909DF8170000909DF8180003F0C3FFD5
:104CB0008DF8140005AAE2E1FFF74EFB00F019FEA3
:104CC0008DF80000FFF748FB8DF80100FFF770FB3F
:104CD000ADF80200FFF740FB8DF804000DF105016F
:104CE00000F031FEFFF738FB8DF80D0000A92846D3
:104CF00003F044FC07E2FFF72FFB03F040FC02E265
:104D000004F0C7FB4EE10DF1120304AAE9A100F083
:104D1000F3FD06A8FFF799FB03A8019003AB05A8D4
:104D200000900DF10F0221464046FFF7FAFC0DF10D
:104D30000D00029006AA05989DF80F30BDF81210DC
:104D400001909DF80C0000909DF8100002F0CFF942
:104D50002DE000BF760000007575700075700000D2
:104D600075000000757500000DF112020120FFF7BB
:104D7000D8FC06A8FFF769FB03A802900DF10F030A
:104D800005A8019004AA03A800F0C7FD0DF10D00CD
:104D9000029006A905989DF80F309DF8102001900B
:104DA0009DF80C000090BDF8120002F0A9F98DF8F2
:104DB0000E000DF10D030DF10E025EE007A8FFF7E6
:104DC00044FB04A8039005AB06A802900DF1150260
:104DD00004A801900DF11300009001200FF67C3122
:104DE000FFF79FFC9DF813309DF814209DF81510D7
:104DF0000DF111000290069801909DF810000090AE
:104E000007A802F089F98DF812000DF111030DF1D8
:104E1000120232E00DF1190000900DF11A0307AAF9
:104E2000DCA100F073FD09A8FFF70FFB05A80290B5
:104E30000DF1170308A8019006AA05A800F06DFD62
:104E40000DF11500049009AB08989DF81920BDF8E4
:104E50001A1003909DF8140002909DF8170001901D
:104E60009DF818000090BDF81C0002F070F98DF854
:104E700016000DF115030DF1160251460020FFF743
:104E800050FC6EE10DF106020120FFF74AFC03A879
:104E9000FFF7DBFA01A8009002AB01AA39464046B1
:104EA000FFF73FFC029B9DF80420BDF8060003A914
:104EB00002F07DF92FE10DF1050000900DF10603E0
:104EC00002AAB5A100F022FD9DF805209DF806106C
:104ED000BDF8080004F02EFCE7E000F023FDAFA1D0
:104EE00000F014FD039A9DF80810BDF80A0004F0C4
:104EF000DBFC8DF809000DF10902C0E07562760057
:104F00007577000008208DF811008DF810000DF164
:104F10000E00029005A801900DF11100009008AB61
:104F20000FF640250DF10F02294600F0EFFC03A813
:104F300002900DF11200019006A800909DF80E302D
:104F4000BDF814209DF80F0008A902F05EF98DF855
:104F50000D0006AB03A802900DF10D020DF1120039
:104F60000190294604A800900020FFF7DAFBF8E042
:104F700000F0C5FC9DF8010001A902F06BF98DF865
:104F8000000000AA00F0C5FC01A8FFF775FAE8E0F0
:104F900000F0B5FC01A8FFF774FA9DF8010001A923
:104FA00002F06BF9DDE300F0C5FC02999DF8040006
:104FB00002F0C2F8AFE000AA00F0A3FC28786A284B
:104FC0009DF8000001A902D104F0ACFC01E004F05E
:104FD000A0FF8DF801000DF1010200F09AFCBDF870
:104FE0000400FFF7DEF99DF80600FFF7CEF90DF19A
:104FF00007011020FFF7F4F90698FFF7E2F9079888
:10500000FFF7DFF99DF82000FFF7BFF90DF121014F
:10501000C5E109A8FFF760FA00F084FC214600F022
:1050200075FC04A80090039B9DF808209DF80A10C9
:1050300009A802F021FE8DF809000DF1090200F027
:1050400068FC04A8FFF741FA8BE008208DF80E00F9
:105050008DF80D0007AB0DF10D00029004AA05A814
:1050600001904FA10DF10E0000F04FFCBDF81000B3
:1050700005AA07A905F03FF98DF80C0003AABFE3C4
:1050800008208DF8050002AB0DF1050000900DF130
:10509000060244A100F03AFC04A900F020FCBDF88F
:1050A000060004AA02A905F066F98DF8040001AA19
:1050B000A6E300BF7576000008208DF801000DF111
:1050C000010301AA38A100F017FC00F007FC03A9B6
:1050D00001A802F0EBFD44E300F02CFC02999DF8DE
:1050E000040002F03FFF8DF805000DF1050200F00D
:1050F00010FC02F052FFFFF748F9FFF72DF900B15D
:10510000012005F0DAFBCBE300F014FC02999DF8D6
:10511000040005F0DBFB8DF805000DF105026FE3DF
:105120002A780FF65000002600E0761CF6B2315CBB
:105130009142FAD1FFF710F90FF6500151F82610FD
:105140008847ADE3FFF708F90646FFF731F92978FC
:10515000302901460CBFDFF86427DFF864273046AA
:105160009047A2E300F0BEFB2878772800A802D180
:1051700005F0C0FB94E305F0F5F891E3FFF718F9AB
:10518000DFF8401703E0FFF713F9DFF83C1708805A
:105190008BE300BF767675007675750076757000C6
:1051A0007662620076620000620000001C7B0208EA
:1051B000A7FF002000A8FFF796F900A805F050FE11
:1051C0006EE3FFF7C9F80546FFF702F900F08EFB22
:1051D00002463146284606F06FFF61E300A8FFF75C
:1051E00017F900A805F0C5FC5AE3FFF7B5F8054626
:1051F00000A8FFF70DF900A9284605F040FD4FE390
:10520000FFF7D6F80546FFF7E3F800F06FFB04461A
:10521000FFF7CEF8034622463146284607F064FBE6
:105220003EE3FFF799F800A908F008F8FFF7ADF89A
:1052300000F04CFB9DF80200FFF7A7F89DF8030073
:10524000FFF7A3F800F046FB9DF80500FFF79DF877
:105250000DF10601A3E0FFF77FF800A908F07DFA41
:10526000FFF793F800F032FBBDF80200FFF799F862
:1052700000F030FB9DF80500FFF787F89DF8060069
:10528000FFF783F89DF807000AE3FFF765F840B2DF
:1052900008F0A3FB04E3FFF75FF800A903F093FA1B
:1052A000FFF773F89DF80000FFF76FF89DF8010015
:1052B000FFF76BF8BDF80200FFF773F800F00AFB88
:1052C0000DF105010820FFF78BF89DF80D00E7E2CE
:1052D000FFF742F803F059FA34E0FFF769F800F0FD
:1052E00008FB0146284608F08FFDD9E2FFF734F8A5
:1052F000054600F027FB00A9284609F0D1FECFE2C1
:10530000FFF72AF800A909F036FF00A947E0FFF7E8
:1053100023F809F03EFF15E000F014FBFFF71CF83E
:10532000010018BF012100A80AF05EF8BDE200F0FC
:1053300009FB00A80AF03BF8B2E200F003FB00A86A
:105340000AF051FAFFF72DF8AFE2FFF731F800A9A4
:105350000AF063FAFFF719F800A920E0FFF728F830
:10536000ADF800000DF1020100F0B9FA0DF11201E3
:1053700000F0B5FAFEF7F0FF8DF822000DF12301E1
:1053800000F0E1FA00A80AF023FB89E200A80AF085
:10539000BBFBFEF7FAFF00F099FA0DF102010820BD
:1053A0007EE0FEF7D9FF054601A900F0CCFAFEF732
:1053B000D3FF064600F092FA03A83300009018BF0E
:1053C000012301AA2946002004F006FE68E200F04D
:1053D000B9FAFEF7C1FF010018BF012100A804F0CF
:1053E000BBFD5DE200F0AEFAFEF7B6FF054602A98E
:1053F00000F075FA290018BF012102AA00A804F0E4
:1054000092FD4DE2FEF7A8FF002100910A460146F9
:105410000023404604F0E0FD42E200F093FA00A8C9
:1054200004F092FC3CE20BF0CDF93EE24FF6FF7047
:1054300005F002F834E2FEF78FFF054606A930209A
:10544000FEF791FF00A91620FEF78DFF280018BF78
:10545000012000AA06A90BF053FB21E2FEF77CFF16
:1054600005460AA94A20FEF77EFF00A92520FEF77F
:105470007AFF280018BF012000AA0AA90BF04DFBF3
:105480000EE200A80BF043FBFEF77FFF00A93020DF
:1054900006E000A80BF046FBFEF777FF00A94A20C4
:1054A000FEF79EFF01E200F01DFA0FA93020FEF783
:1054B0005AFF04A92A20FEF756FF04AA0FA900A844
:1054C0000BF036FBECE100F00DFA16A94A20FEF7CE
:1054D0004AFF04A94820FEF746FF04AA16A900A81F
:1054E0000BF028FBDCE106A91620FEF73CFF0CA917
:1054F0003020FEF738FF00A91520FEF734FF00AA80
:105500000CA906A80BF001FBCAE1FEF751FF00F061
:10551000F0F941B228460BF0F0FBC1E10AA900F016
:10552000DEF9FEF755FF0090FEF716FF8DF8040038
:105530000DF1050100F0D3F90DF1150100F0CFF9DF
:1055400000A90AA80BF054FDAAE1FEF741FF00F004
:10555000D0F900F0CBF9024671B228460BF07AFD83
:105560009EE1FEF725FF0BF0C2FD99E10CF04AF930
:105570009BE10CF04BF893E1FEF7EEFE054600A828
:10558000FFF787F800A928460CF05CF988E1FEF7E0
:10559000E3FE00A90CF0B2F9FEF7F7FE00A8FFF752
:1055A00045F882E1FEF7D8FE054600F09BF900A918
:1055B00028460CF08DFD73E1FEF7CEFE00F099F960
:1055C0000646FEF7F5FE8146FEF7C6FE0446FEF7E8
:1055D000C3FE0746FEF7C0FE8246FEF7D0FE0290ED
:1055E000CDF804A0009723464A46314628460DF0E0
:1055F0005BFF55E1FEF7B0FE054600A8FEF7E7FFAA
:10560000FEF7AAFE42B200A928460CF033FB47E1A0
:105610000CF0C4FB44E1FEF79FFE0546FEF7C8FE12
:10562000064600F08FF9FEF797FE034600AA3146C2
:1056300028460CF054FC33E1FEF78EFE0CF0DEFC45
:105640002EE1FEF7C5FE0546FEF7C2FE01462846DE
:105650000EF0D8FA24E1FEF77FFE00F04AF900F0E0
:1056600045F90746FEF7A4FE0446FEF775FE0090D6
:1056700023467AB2314628460CF0EAFC10E100A835
:10568000FEF7BFFF00A80EF0E2FA09E100A80EF055
:10569000EBFAFEF77AFE00A8FEF79FFF05E1FEF7A2
:1056A0005BFE00F026F9014628460DF0D7FFF7E033
:1056B000FEF78EFE054606A8FFF71CF8FEF74CFE27
:1056C0000646FEF775FE8146FEF772FE0446FEF7BB
:1056D0006FFE074604A900F036F909A900F0FFF8AB
:1056E00009A803904B4604A8029001970094324603
:1056F00006A928460EF003FDD7E0FEF72DFE00F0C8
:10570000F8F8064604A8FEF7F5FFFEF725FE8146E9
:10571000FEF722FE0446FEF732FE0746FEF71CFEA9
:105720008246FEF745FE0390CDF808A0019700944D
:105730004B4604AA314628460EF0DBFCC0B2AFE06F
:1057400001A8FEF7D7FE0DF101030DF1020259A1E8
:1057500000F0D2F89DF901209DF8021001A802F096
:10576000C1FC8DF8000000AA4AE0FEF7F5FD0BF041
:1057700068FF95E00BF06AFF92E004A900A80BF027
:1057800037FF00A8FEF7E5FE04A8FEF711FF8CE046
:1057900000A8FEF7F5FE00A80BF032FF85E0FEF74B
:1057A000DBFD01F027FA7BE006A805900DF11E0352
:1057B00009A8049008AA06A803900DF11A00029007
:1057C00007A801900DF11B00009001200FF29C1121
:1057D000FEF7A7FFBDF81C309DF81B20BDF81E107A
:1057E00009A802909DF8180001909DF81A000090F9
:1057F000BDF8200001F0D3F98DF819000DF1190260
:1058000000F087F851E0FEF7D3FD01F0E7F947E03B
:1058100001A900A801F051FA8DF8010000AB0DF1CB
:10582000010251460020FEF77CFF01A90820FEF787
:10583000D7FDBDF80C00FEF7B4FD9DF80E00FEF795
:10584000A4FD9DF80F00FEF7A0FD9DF81000FEF7E7
:105850009CFDBDF81200FEF7A4FD9DF81400FEF7B4
:1058600094FD0698FEF7ADFD1FE008208DF81200AC
:1058700006AB04A803900DF1110205A802900EA139
:1058800004A801900DF1120000F03FF89DF81100FE
:1058900000B10120059B9DF8102006A901F095FF9D
:1058A000FEF773FD01E04FF0000840462AB0BDE866
:1058B000F08700007573000075627000978700081C
:1058C0001FF10008F0F20020F2F20020BDF8000005
:1058D000FEF767BD9DF80400FEF757BD03A9102031
:1058E000FEF741BD00A91020FEF73DBD0646FEF7BC
:1058F00033BD0546FEF730BD0120FEF712BF0DF1A6
:10590000010231460120FEF70CBF00900120FEF796
:1059100008BF31460020FEF704BF009049464046CC
:10592000FEF7FFBE02A8019002AB03A800900DF1A4
:105930000A02704701A8009002AB01AA3946012073
:10594000FEF7EFBE00A90820FEF70DBD7576627563
:10595000000000007576767675757500757575753D
:10596000700000007562767500000000767675762E
:1059700075756200181D207A2A84858687888B8A2F
:105980008D959A2E5BB1A4A122E8EE001BD90008E8
:10599000D3C10008ED9A010827D20008B98A00088F
:1059A000A10B0108190C01082F0C0108430C010878
:1059B0005F0C0108F70C0108E10C0108230D010838
:1059C00085650108B9BE000861B9010865B901081B
:1059D00079A10008050B0108130B01083DAC000874
:1059E0001F0B01082D0B010838B50446207898BB21
:1059F0006070012020722070A07803281FD0072833
:105A000021D0112804D0152820D0302814D021E02E
:105A10000720DFF8B459207204F1090029880EF03C
:105A200076FBA878E072E87820732879607368794B
:105A3000A073A879E07331BD0EF0A5FB08E0DFF894
:105A40008C09007804E00EF07FFC01E00FF0B2F862
:105A5000607231BD0020207031BD38B50446207819
:105A6000002851D101202070A078042810D00728E8
:105A70001BD00E2821D0112841D0152829D0172855
:105A80002CD0182834D0192835D030281BD039E034
:105A9000207A01281BD1607A00B10120DFF830198B
:105AA000087000200FF0D0F927E0607A10B10EF0F6
:105AB00019FC25E00EF028FC22E0607A00B10120FC
:105AC0000FF004FB02E0607A0EF060FBC0B13620FC
:105AD00016E094F909000FF045F80EE0657A04F13C
:105AE0000A000EF00DFB014628460FF0DCFB04E037
:105AF0000FF0D4FB01E00FF0C4FB002000E03720E2
:105B0000607031BD0020207031BD10B50446DFF853
:105B1000C4088078217856280CBF0120002001BBE2
:105B2000A1706178072910D130B10FF011FC012864
:105B300014BF632062200EE0E07862280CBF0120D1
:105B400000200FF008FCA07009E0042909D1DFF85B
:105B5000881810B10878E07001E0E0780870012042
:105B6000207010BD017809BB81700121017041785E
:105B700001290ED00C2909D017290DD02D2902D0CA
:105B800035290CD010E0DFF854180AE0DFF850187F
:105B900007E0DFF8501804E0DFF84C1801E0DFF808
:105BA0004C1809788180704700210170704738B522
:105BB0000446207800285AD1012020700020A070CF
:105BC0006078012815D00C280FD017283DD02D283B
:105BD00002D0352844D048E0A18803293DDAC9B273
:105BE000DFF8F8070FF086FD38E0A088DFF8F0173F
:105BF00039E0DFF8FC07008828BBA08818B3DFF87D
:105C0000F45728780FF09EFF0FF032F880B1A1888A
:105C1000DFF8D007C9B20FF06DFDA0700FF032F8B9
:105C2000DFF8D407DFF8D4170068C01C086001E073
:105C30003820A07001200FF01CFF28700020DFF832
:105C4000C017088031BD382008E0A08810F0EFFAB6
:105C500018B9A088DFF8901705E03620A07031BD94
:105C6000A088DFF88817087031BD0020207031BD92
:105C700080B501208DF8000000A8FEF7A0FE9DF879
:105C8000000002BD2DE9F04FA7B00FF038F80FF07B
:105C900053F80746DFF86007DFF838470068DFF899
:105CA000642746788578A57006F003018DF8081002
:105CB00001782170C11C1160C01CDFF8401708601A
:105CC000700900F00300E07010F00CFE300602D501
:105CD0005825322041E2607820B9A07810B15825CB
:105CE00030203AE211F09EF810B95825422034E2F3
:105CF000FFF7BEFF002800F03282A0786178DFF85D
:105D000008B702000FF238280FF238290FF2382AAC
:105D10004FF6FF7665D0012800F0D981022800F007
:105D20009D80032800F0EE80052834D0062800F07E
:105D30003881092818BF0A2800F03B810B2818BFBA
:105D40000C2800F03D810E2800F04781122800F059
:105D50008D81132800F0C081172800F0CD812628FE
:105D600000F0C081272800F0C281472800F0B781E9
:105D7000492800F02C814E2800F05981522845D046
:105D800053285AD0552800F08080562800F094807F
:105D900065281ED0812800F0F9808F2800F0AF819F
:105DA000912800F0C981942800F0B5819D2800F069
:105DB0008981AA2800F09C80AB2800F0C780AC281D
:105DC00000F0D980AD2800F0D980AE2800F0D9804D
:105DD000F12800F06781F52817D0F62800F0D4806C
:105DE000B6E1FEF7B9FA06460420FEF7CEFA022025
:105DF000FEF7CBFA45F22070FEF7D3FA6078002860
:105E000008BF042E01D101206070A8E100F0C6F99E
:105E1000FEF7A2FA8DF8010000A8FEF7A1FD9DF89B
:105E2000000028B937208DF802000020ADF80400EA
:105E300001AB0DF10202414656E0012918BF38209E
:105E400039D100F0ABF901AB0DF10102414601205F
:105E5000FEF767FC00A8FEF791FD24E03826012933
:105E600012D1F91EC9B203200EF052FF0746FF2FD0
:105E700008BF352608D010F0E7FF002814BF002621
:105E8000362638460FF05EFEEEE0042200F087F979
:105E90000DF103030DF1010249460120FEF741FC1B
:105EA00000A8FEF748FD9DF8000010B937208DF8D6
:105EB00002009DF8020050E1042200F070F9FEF7A4
:105EC0004BFA8DF8010000A8FEF733FD9DF80000A5
:105ED00028B937208DF8020000208DF803000DF15D
:105EE00003030DF1020249460020FEF71AFC36E1D9
:105EF00000F04FF9FEF730FA8DF80E0003A8FEF718
:105F0000F5FC0BE000F045F904AB0DF10E02AEA17B
:105F10000120FEF706FC03A8FEF7F7FC9DF80C0035
:105F200028B937208DF80D0000208DF8140000F0FE
:105F300029F90DF10D0251460020FEF7F2FB0EE1AA
:105F400075760000757500007575620000F021F926
:105F500000F018F90DF10E0251460120FEF7E1FBA9
:105F600003A8FEF7D4FC9DF80C0000280CBF3720D6
:105F70009DF80D00F1E0FEF71BF9F0E0FEF77FF968
:105F8000EDE0FEF7C3F9EAE00020B2E0042FFADB0F
:105F9000DFF86804DFF8641400683818C01E086071
:105FA000DDE0012000F0FFF8002840F0E880072540
:105FB000D5E009280CBF0120002002F0A3FDCEE0AF
:105FC0000C280CBF0120002000F066F9C7E000207B
:105FD000FEF7DBF911F060F88BE0FEF7BDF906463D
:105FE000FEF7E6F90746FEF7B7F98046FEF7B4F983
:105FF0008146B7F5004FB4BFB8F1040F70200BEB2A
:10600000C60A11DA022E10DADAF8000042463946E2
:1060100011F052F8B9F1000FAAF8047008BF4FF060
:1060200000088AF80680002097E0702095E0FEF7CF
:1060300093F9002100260228ADF802108DF8001017
:106040000BEBC00708DA386800AA0DF1020111F065
:1060500042F8B87900B10126BDF80200FEF7A1F9B7
:106060009DF80000FEF791F9304676E0FEF774F9EE
:10607000070018BF0127002011F05EF88046424655
:10608000FF2A08BF182068D0002F14BF3046022016
:1060900080A111F09DF80020FEF777F940460FF03F
:1060A00051FD5CE00026DFF8647337F81600FEF758
:1060B00078F9761C222EF8DBA07865284FD10FF0F6
:1060C000E0F84CE0FEF774F90EF0A2FE47E0FEF7B0
:1060D00043F911F0CFF940E010F0B3FE3FE010F0CB
:1060E000A7FE3CE0CA490820FEF77AF937E009F03C
:1060F000C5FBFEF756F932E004F0B1FE2DE00127B2
:1061000011F02CFAB04204D00027FEF725F9C1495E
:106110000870384621E003A91020FEF724F907A9EA
:106120001020FEF720F907A903A811F05DFA03A9D2
:106130001020FEF755F912E011F010FAFEF731F9D0
:106140000420FEF722F90820FEF71FF9032004E0DF
:10615000FEF748FC18B958253120FEF716F9A64974
:10616000207809680870072DA348006885700CBF67
:10617000012200229DF80800012100F027F827B035
:10618000BDE8F08F05A8019005AB0DF1150000905A
:1061900070478C22002103A8FEF74EBB0622002187
:1061A00000A8FEF749BB10B504469148008848B1E5
:1061B0000EF0CDFD30B1984800780122214600F064
:1061C00005F8012010BD0000757700002DE9F843A7
:1061D0008846DFF82492894909680446D9F8000006
:1061E000091A16468FB21EB14078C0F3411502E07D
:1061F00010F074FB054679480078854205D340F2DB
:106200007F310FF2242011F0FBF9680140F080008B
:10621000C92FC5B205DBC8200EF094FD45F002057C
:1062200002E0F8B20EF08EFD7C48017819B1002131
:1062300045F0020501707A48017819B1002145F056
:10624000010501706A48018811B145F00401CDB221
:106250003EB1B8F1000F14BF45F0080145F0100140
:10626000CDB2D9F800106C4A4D70012C008818BFCF
:10627000022C05D108B9147004E00020107004E06D
:10628000147010B900200EF0DFFD4046BDE8F24367
:106290000EF026BD620000002DE9F0419AB00446E0
:1062A000FEF75AF805464CB1062818BF082803D057
:1062B000092818BF0B2801D170207FE0062D12D1CC
:1062C0002820FEF762F8002456480188022322465F
:1062D00001A811F0C5FABDF80400FEF762F8641CCD
:1062E000142CF1DB6CE0082D1DD14020FEF74DF899
:1062F0000024042322460C2100A811F0B1FA9DF8D5
:106300000000FEF742F89DF80100FEF73EF89DF808
:106310000200FEF73AF89DF80300FEF736F8641C19
:10632000102CE6DB4CE00B2D47D000260FF20C18AA
:1063300008EBC607387885422BD114B97878FEF778
:1063400024F878687B780188002202A811F088FA86
:1063500034B3FEF701F801467878814201D002207B
:106360002CE0002100E0491CC9B2814205D202AAFA
:106370008A5CFF2AF7D0462020E002A9FDF7F3FF50
:1063800078687A78008802A911F0F9FA0020FDF700
:10639000FCFF761CF6B20A2ECAD374B1B1200DE010
:1063A000092D05D1152200210DF14E00FEF744FA0A
:1063B000787802A9FEF714F802E00020FDF7E5FF67
:1063C0001AB0BDE8F0810000A47F0208C1F10020EE
:1063D000ABFF0020A5FF0020E8F2002014F200200F
:1063E00099FF0020C0F10020AAFF002028F2002021
:1063F000F2FE0020E6F3002060FC002034F80020CC
:10640000BAF9002030F80020A8F3002078FC002022
:1064100064FC0020E4F30020CBFF0020A9FF002053
:10642000F0FE0020847F0208636F6D6D616E642D45
:1064300068616E646C6572732E6300000110000069
:10644000787F0208021000007A7F02080302000031
:106450007C7F020805100000807F0208070800000A
:10646000827F020800020000747F0208040200001C
:106470007E7F0208095C0000867F02080A14000083
:10648000887F02080C080000767F020810B50446D9
:1064900001202070A178DFF8A00A27290CD1217AE9
:1064A0000429A8BF36200DDA417304F10901227ACC
:1064B0002030FEF77EF96FE028290CD1217A0829D7
:1064C000A8BF36206FDA017304F10901227A18306F
:1064D000FEF76FF960E0C27B1D2910D1217A0429F3
:1064E00018BF36205FD142F00101C173617A017299
:1064F000A17A4172E17A8172217BC1724CE01E293E
:106500000DD1217A012918BF36204CD1617A00299A
:1065100014BF42F0020102F0FD01C1733CE01F29EB
:106520000DD1217A012918BF36203CD1617A00298A
:1065300014BF42F0040102F0FB01C1732CE02029DA
:106540000BD1217A082918BF36202CD1082204F15A
:106550000901B030FEF72DF91EE021290BD1217A77
:10656000092918BF36201ED1092204F10901A430DF
:10657000FEF71FF910E0222910D1217A052918BF52
:10658000362010D1617A0170A17A4170E17A817070
:10659000217BC170617B0171002004E0162904D1C8
:1065A000607A0BF0D8FD607010BD0020207010BD27
:1065B0002DE9F54FDFF88409C0780027702895B0E1
:1065C0008A461E46BB4640F021813078DDF8809037
:1065D000DFF86C89DFF86049C0F3021000900025F5
:1065E00000E06D1C0098EDB2C0B2854280F093804F
:1065F000A8190221C07C00F072FA0028F1D0327B89
:10660000F07AB17AE57B130901EB0020AF0702F0C5
:106610000F014EBF0127277A07F00F07727BED07A6
:1066200080B268D54FF6FF75A8421CBFB8F800507D
:10663000A84260D18F4222BFBB42219890425AD3D8
:106640001599082208A8FEF7B4F816998DF828A025
:106650000A220DF12A00FEF7ACF81A2231460DA8E5
:10666000FEF7A7F88DF84E90E07B80074CD5DFF859
:10667000D45805F12E06B07800283DD008222946CE
:1066800008A8FEF7E0F8002801BF0AAE7088698903
:1066900088422CD1072205F10C010BA8FEF7D3F894
:1066A000002802BF307B297D884220D10F220DF1C6
:1066B00035010DF13500FEF7C6F8C0B9032205F12A
:1066C000240111A8FEF7BFF888B9072205F12701B8
:1066D0000DF14700FEF7B7F8002802BF9DF84E0005
:1066E00095F82E10884202D1022101200EE0E07BB5
:1066F00000F0FD00E07387E0302208A92846FEF78D
:1067000058F80120B0707FE00221002000F0ABF9C2
:106710004FF0010B78E000253BE0401CC0B28842FE
:1067200036D2DFF824288218127C9145F5D101A8D1
:1067300000F085F9227B04F118010DF11700FEF736
:1067400038F89DF8040000F08F008DF8040009224D
:10675000217B090141F0010108438DF8040004F197
:10676000A4010DF10500FEF724F8A0788DF80F00C4
:1067700060788DF8100020788DF8110020798DF860
:106780001200E0788DF8130001A80DF060FABB4606
:106790006D1C0098EDB2C0B2854234D2BBF1000F3F
:1067A00031D1A819C07C012802D0C0280FD0EFE752
:1067B000E07B01278007EBD51599082204F124001E
:1067C000FDF7F7FF0021012000F04DF9DFE7DFF8CA
:1067D0007C17097801F0010101270AF0010081F01E
:1067E0000101084301BF16980088B8F800108842DC
:1067F000CED1DFF854070078B9F1FF0FC0F34101A3
:1068000095D000208AE70FB1584606E0DFF82C0744
:10681000007872280CBF0120002017B0BDE8F08F6F
:106820002DE9FE4FDFF81407C07800247028A04639
:106830006BD10E98DFF800A700780094C0F3021027
:10684000019021E06D1C09F10109B9F1100F43DB42
:1068500096B10E980078C0070ED50E98C07AC0F396
:106860000110022818BFFF2F06D002990AEBC700BB
:1068700008222430FDF79DFFE8B2102800DAA04678
:106880000098401CC0B2009000980199884239DA03
:10689000B8F1000F36D10E98009908180022C17C7B
:1068A00000E0521C9AF80E30D2B29A42E8D202EBC3
:1068B0000A031B7C8B42F4D1012906D0032902D0A4
:1068C000C02904D0DCE70124D9E70124D8E700255A
:1068D000FF2701260124A9460AEBC90B02990822C9
:1068E0000BF12400FDF7AFFF00B90026FF220821BD
:1068F0000BF1240007F04DF80028A3D0FF2FA2D100
:106900004F46A0E70CB1404606E0DFF8300640787D
:1069100074280CBF01200020BDE8FE8F2DE9F44F44
:10692000DFF818A605469AF80300002670288EB0F6
:10693000B3467BD1199F38781A9CDFF8FC85C0F3E9
:1069400002100490B14607E00126002D18BFC12DAA
:1069500000D1B34609F1010904985FFA89F9C0B280
:10696000814560D2BBF1000F5DD109EB0700C07C0F
:10697000012848D0032802D0C028E5D0EAE7012644
:10698000032CE7DB002D18BFC12DE3D107A800F0D1
:1069900056F89DF81C0040F001008DF81C000822FC
:1069A00008F1B0010DF11D00FDF703FF07220021E2
:1069B0000DF12500FDF740FF387805A90391C0F3DC
:1069C0004102C0F30211029108F1180307F113010B
:1069D0000191FF2098F80C10009107F1100100F0D0
:1069E000ADF89DF81C1001F08F0141EA00118DF8FF
:1069F0001C10024605A90DF12F00FDF7DAFE07A8CD
:106A00000DF025F9A5E70126002D18BFC12DA1D154
:106A1000032C9FDB0E99082208F12400FDF713FFD9
:106A2000002897D195E70EB1584605E09AF8020084
:106A300076280CBF012000200FB0BDE8F08F38B5DC
:106A4000DFF8F4546A7B044605F1200104F11000DC
:106A5000FDF7AFFE207800F0F9002070697B40EA76
:106A60004100207031BD70B588B005460E4600A8C3
:106A7000FFF7E5FF9DF80000DFF8BC44217B00F044
:106A80008F008DF80000334600AA04F1180000F0D2
:106A900033F89DF8000040F001008DF80000082256
:106AA00004F1B0010DF10100FDF783FE00208DF827
:106AB0000900ADF80A00002DA07A8DF80C00607A6C
:106AC0008DF80D0014BF2120207A8DF80E00E07A99
:106AD0008DF80F0000A80DF0BAF808B070BD0022C4
:106AE000022808BF0122032808BF02228A4201D1DE
:106AF00001207047002070472DE9F84314460546F1
:106B0000207888469946C0F3021600270BE0785D8E
:106B100040B14946FFF7E3FF20B1F2B2785D1119A9
:106B2000561CC8747F1C4745F1DB207800F08F00AD
:106B3000207040EA06102070BDE8F183F8B51C46CD
:106B40000025002306E0FF281CBF5E5CB04205D094
:106B50005B1CDBB29342F6DB0020F2BD099E0722EC
:106B6000FF213046FDF768FE0699079A0898002332
:106B70000EE01F5D1CF802E0774502D1EDB2AF5583
:106B80006D1C0CF1010C5FFA8CFC8445F1D35B1C8D
:106B90008B42B8BF4FF0000CF5DBE8B2F2BDFEB59A
:106BA000099C082C01DB7020FEBD0A9E089D029600
:106BB000019400950BF019F905000DD1DE4F8022EC
:106BC000FF2107F12400FDF737FEBC732246314652
:106BD00007F11000FDF7EDFD2846FEBD10B50BF0E6
:106BE00063F9040004D18022FF21D948FDF724FE77
:106BF000204610BD00210AF025BE10B504462078BD
:106C0000B8B901202072A078262805D10020607034
:106C1000D048007860720AE016280AD104F10A0010
:106C20000BF029FB10B10021372021726070012088
:106C3000207010BD0178002908BFFFF727BC7047FE
:106C4000017899B941780939C9B210290ED2C24ADE
:106C500052F82110C14A1278562A07BF0978C1702C
:106C6000C2780A700021817001210170704710B54F
:106C70000446207800BB6078B94A312808BF104626
:106C800002D0322818D1B748B0B1B4490978522996
:106C900008D0A188904209D1B34A12788A4205D21D
:106CA000362006E00078A080002002E0C9B20EF095
:106CB00021FDA0700120207010BD70B5044686B083
:106CC0000D463826112010F0D5FB802815D120461E
:106CD00005F01CF9064612231C2200A901200DF024
:106CE0008AFABDF8060028819DF80200A8729DF876
:106CF0000300E872BDF80400E881304606B070BDBC
:106D000080B510F05AFF0DF01AF8BDE8014010F000
:106D1000DFBF38B504460D46092200212846FDF79D
:106D20008BFD218828460DF0F2F9A11CA81CBDE8B6
:106D300038400722FDF73DBD38B504460D461A22FE
:106D400000212846FDF778FD207828700F22611C6D
:106D5000681CFDF72EFD2078C0F3410204F11001FC
:106D600005F11000FDF725FD2078C0F3021204F1B3
:106D7000130105F11300BDE83840FDF71ABD2DE9F8
:106D8000F0438FB00646DB208DF808000F46904692
:106D90009946082231460DF10900FDF70AFD8DF8EC
:106DA00011700DF112014046FFF7B3FF0DF11B0109
:106DB0004846FFF7C1FF169D179C8DF835508DF89A
:106DC00036402F2102A811F08BFA019400954B4612
:106DD000424639463046FFF7EBFB0FB0BDE8F08383
:106DE0002DE9F14F92B0DC208DF8140005AE9DF82E
:106DF000480070700DF115058A469046994685F851
:106E000001A041460DF117000DF081F90822494615
:106E10000DF11900FDF7CDFC1C9C2C730DF1220126
:106E20001D9F3846FFF775FFDDF878B00DF12B0197
:106E30005846FFF781FF1F9D86F831503321209E71
:106E40008DF8466005A811F04BFA04960395CDF82D
:106E500008B0019700944B469DF8480042465146C1
:106E6000FFF7DEFC13B0BDE8F08F2DE9F04790B0DE
:106E70008146E1208DF80C000DF10D040E4692467E
:106E800098468DF80D906670082251460DF10F005E
:106E9000FDF78FFC84F80A8006A9189D2846FFF7A5
:106EA00038FF199F0DF121013846FFF745FF1A9C65
:106EB0008DF83B40302103A811F012FA029401979B
:106EC00000954346524631464846FFF727FD10B02D
:106ED000BDE8F087F0B58DB004460D4616461F4656
:106EE0002F22FF2100A8FDF7A7FCDE208DF800006F
:106EF0008DF801409CB9082229460DF10200FDF7EA
:106F000058FC8DF80A600DF10B013846FFF701FFC0
:106F1000129805A9FFF710FF13988DF82E002F2166
:106F200000A811F0DDF924B9082229460848FDF728
:106F300040FC0DB0F0BD0000B8F8002054F3002074
:106F40002CFA002070F9002038FA002098F3002075
:106F5000DCF8002099F3002058F30020A7FF002060
:106F600030F2002038F20020737B020880B5DA216D
:106F700060E010B59EB01C468DF801008DF802103F
:106F8000D5238DF8003011460DF103000DF0BFF848
:106F90008DF805400DF10700209C21998DF80640E1
:106FA0002246FDF706FCE11D1FE010B59EB0D62479
:106FB0008DF802108DF801008DF800408DF8032047
:106FC0008DF804300DF1050020990DF0A0F82198FE
:106FD000229C23998DF807008DF8084022460DF178
:106FE0000900FDF7E6FB04F10901C9B200A811F0A0
:106FF00077F91EB010BD10B51C46E0238AB00028FA
:1070000018BFC1288DF800308DF801008DF80210EE
:1070100008D10DF103011046FFF77BFE03A92046BE
:10702000FFF78AFE262100A811F05AF90AB010BD18
:1070300080B5E3218DF800108DF80100022100A831
:1070400011F04EF901BD80B5E421F3E72DE9F84FC9
:107050008046DFF8180B07780D460A9991469B4643
:1070600019B10B980EF0F1FD02E000200EF0CCFDFE
:1070700082460C9EBAF1FF0F03D100201824307015
:1070800032E0342F06D0362F0ED0382F13D0962F63
:1070900018D01AE053464A462946404601F05CFFA4
:1070A000044602F06EFB10E053464246494628462D
:1070B00001F0B1FF08E05346EAB24146484601F00C
:1070C000FEFF01E011F03CFB0446962F1CBF99F82F
:1070D0000A003070E4B224B9DFF8940A00680AF8B4
:1070E00000B050460EF02EFD2046BDE8F28F10B5E0
:1070F00084B0089C0294079C0194069C009407E0CD
:1071000010B584B00446104600F00FF80A46214638
:10711000FFF79CFF04B010BD10B5044684B00846CC
:10712000114600F002F82246F2E7089A0292079A06
:107130000192069A00927047E0B5019100220090FA
:107140001146029200230846FFF780FF0EBD2DE98D
:10715000F04683B089460C99054692461E4619B101
:107160000D980EF072FD02E000200EF04DFD044679
:107170000E9FFF2C03D100201825387014E00A98C8
:1071800000900194334652464946284601F065FF77
:107190000500B07A387004D1DFF8D4190B9809686B
:1071A000605420460EF0CEFC2846BDE8FE8638B579
:1071B000DFF8C0492080C888440606D5DFF8B84902
:1071C0002478202C03D1000401D4702032BDDFF8D4
:1071D000AC49216022B1114618460EF036FD02E09E
:1071E00000200EF011FD0546FF2D08BF18240AD01F
:1071F00020684088294602F053F9044602F0C1FA9B
:1072000028460EF09FFC204632BD2DE9F041069F36
:107210000D46044616469846394607F0ACFF204610
:1072200007F0B7FF07990880384608F0C0F80899BA
:1072300008702946204607F033FF070007D1314682
:10724000204607F06CFF4146284608F0CDF8384646
:10725000BDE8F081DFF828291278904201D3702030
:107260007047DFF82029126832F820300B8002EBDB
:1072700080008078887000207047DFF80429127839
:10728000904201D370207047DFF8F82812680B880D
:1072900022F8203002EB800089788170002070474E
:1072A00030B589B00C4604F031FE054612231C228D
:1072B00004A901200CF09FFF002020730FF00EFBAB
:1072C0009DF8101088420BD1BDF8160020819DF862
:1072D0001200A0729DF81300E072BDF8140019E0CE
:1072E0001023072200A901200CF085FF082202A923
:1072F0002046FDF75EFABDF80000208104F114017C
:107300009DF80200A0729DF80300E07204F11000E5
:1073100011F05BFBE08109B0284630BD38B504466A
:107320000D4606F0B1FA014608222046FDF741FA63
:1073300006F0A6FA2880DFF85008007832BDF8B5CC
:1073400004460D4616461F4611F0A3FE28803A4615
:1073500031462046BDE8F84011F0ABBEFF2203F0F5
:10736000DCBD10B504462078002842D101202072EF
:107370002070A078142804D10020607012F0DDF98C
:1073800033E001280BD0022808D0082818BF0D28A8
:1073900005D0122818BF132801D002E02072002166
:1073A000617001280AD0022812D008280AD00D28BE
:1073B0000BD0122815D0132815D018E0DFF8CC0711
:1073C000007812E003F031FB0FE005F044FC0CE024
:1073D000DFF8BC07018804F10900BDE810400CF09B
:1073E00096BEFF2001E003F092FD607210BD002008
:1073F000207010BD10B5044682B0207858BB012023
:10740000207000206070A07818B1022819D00BD32A
:107410001FE0616800AAC9B20FF07CFD6070022015
:10742000207204F1090007E00320207200A812F086
:1074300054FB607204F10A00BDF800100CF067FE06
:1074400013BD01202072606880B212F09AFD607254
:1074500013BD0020207013BDF0B5044685B0207820
:10746000002840F0D88001202070A078010022D0B0
:10747000012844D0022849D0052818BF06284DD03D
:10748000082800F0BB80092856D00A2879D00B289C
:107490007CD00C2800F086800F2800F087802328FD
:1074A00018BF242800F08F80252800F09D8029280F
:1074B00000F0A680ADE0207A102860D100F0ADF891
:1074C000ADF80400082294F90B008DF8060004F1D1
:1074D0001001207B8DF80700607B8DF80800A07BF1
:1074E0008DF80900E07BADF80A0003A8FDF761F90B
:1074F0001023072201A900200CF07DFE86E0207AEF
:1075000001283CD1607ADFF884167EE0207A0228D8
:1075100035D100F082F8DFF878160BE0207A0228E7
:107520002DD100F07AF8A17805290CBFDFF8641698
:10753000DFF86416088069E0DFF860060568207AE5
:1075400046080DB9DEB961E0DFF854060078B042B4
:1075500015D3002707E004EB470009300CF0D0FDFD
:1075600025F817007F1CB742F5DB4FF4004725F8DC
:107570001670284612F077FD002848D02F8036205C
:1075800045E000F04AF808F09CFA3FE0DFF8140606
:107590000068407B20B900F040F808F073F935E04E
:1075A000382034E0607ADFF800162EE0657A04F1C6
:1075B0000A000CF0A5FDADF8000000AA2946012044
:1075C0000FF0A8FC23E0217A042912D123280CBF54
:1075D0000325012504F1090101200CF0AAFD014653
:1075E000284612F0DEFE12E0607A032818BF042855
:1075F00001D002200BE004F054FB07E0372006E046
:10760000607A00B10120DFF8A415087000206070D6
:1076100001E00020207005B0F0BD04F109000CF07D
:107620006FBDDFF848150978027856290CBF012193
:107630000021AAB98270DFF840354278032A05D1CB
:1076400009B1597806E0C178597007E0022A07D1DC
:1076500011B11978C17001E0C17819700121017070
:107660007047017801B1704730B581700121017018
:107670004178052906D0122913D018290AD01F29CC
:1076800012D015E0DFF82815DFF8282509781278E0
:10769000891A21E0DFF820150A78511E8941C90FA7
:1076A0001AE0DFF8181501E0DFF81415098813E077
:1076B00000220FF23C5300E0521CD2B21446E55CAB
:1076C000FF2D02D10021017030BD8D42F4D10FF2A7
:1076D0003C5151F824100978818030BD70B50446C2
:1076E0002078002870D1012020700020A0706278DE
:1076F000052A08D0122A2BD0182A1DD0192A02D008
:107700001F2A20D02DE0DFF8AC040578DFF8A004B4
:1077100001784E1BA188052A0CBF0E460D46A919FB
:10772000C9B20DF0E7FF0028A0704DD1E9B2F0B268
:10773000BDE8704013F04CB8A188481E8041C00FCE
:10774000DFF874143DE0A088DFF87414088070BD81
:10775000A18847F2315081421DDADFF860040180D0
:1077600070BD0FF28C4100E0401CC0B203465D5C6E
:10777000FF2D02D10020207070BD9542F4D1042B62
:1077800007DADFF8400450F82300A1880078884227
:1077900001D32B2A02D13620A07070BD0FF26C40AD
:1077A000A18850F823000B2B0DDAC9B20DF0A2FF0F
:1077B000A070002804BF6078112805D1A088DFF8E8
:1077C0000814087070BD017070BDF8B504460D4610
:1077D0001146184618260EF038FA0746FF2F08D033
:1077E0003A462946204613F0F1F9064638460EF08F
:1077F000A9F93046F2BD38B504460D462188284621
:107800000CF085FC6188A81C0CF081FC20792871A3
:1078100060796871A81DE1880CF079FC218905F177
:1078200008000CF074FCA07AA87231BD10B586B0C7
:1078300004461B208DF80000A0788DF801000DF1A2
:10784000020021880CF063FC0822211D01A8FCF72E
:10785000B0FF00A8E1780173217B4173607B8DF854
:107860000E000DF10F0000F0B9F9112100F01AF926
:1078700006B010BD80B58DF801008DF802101C22F5
:107880008DF80020D4E02DE9F04F87B005460E4674
:10789000144613F092FA80462246314628460FF0ED
:1078A000C5FA002865D10DF1090013F08EFA30B940
:1078B00062208DF80800092102A810F011FDFF2CAC
:1078C0000FBF4FF0000BC149096814F801B0452003
:1078D0008DF8080002AF0DF10A017D703046FFF708
:1078E0008AFF0DF1150000F079F941460DF11700FE
:1078F0000CF00DFC01F0F9FD8DF819000025B448DD
:10790000DFF8B0920668DFF8A8A201E06D1C0C3623
:107910009AF8000099F80010EDB2401A85420BDA8F
:1079200030884045F2D10FF003F8B17AC1F342013B
:107930008142EBD1BD7401E0FF20B8748DF81BB01B
:10794000404612F01EFB8DF8040000B101200090AB
:1079500001AB2246142102A810F0CAFC00281EBF69
:1079600085480078212804D19A48017841F0040123
:10797000017007B0BDE8F08F2DE9F043074693484A
:10798000006887B01D460E9C2E5C884691462146B5
:10799000384601F03DF93F208DF804008DF8057060
:1079A00041460DF106000CF0B2FB02A94846FFF774
:1079B00022FF6F480068285C8DF813008DF8144092
:1079C00085480078402804BF0026FF25002000904D
:1079D0008DF8156000232A46122101A810F088FCBA
:1079E00007B0BDE8F0831FB5044623208DF80000E2
:1079F0008DF801408DF80210204611F04AFB014637
:107A00000DF103000CF083FB0DF10D020DF10501EA
:107A1000204611F04EFB0E2100F044F81FBD80B54A
:107A20007C218DF8001001460DF101000CF06FFB78
:107A3000032100A810F054FC01BD70B586B00446C7
:107A40007D208DF800000D46164621460DF10100FF
:107A50000CF05DFB082229460DF10300FCF7A9FE9E
:107A60008DF80B600C2100F01DF803A813F0ADF9A0
:107A700018B903A9204612F0B1FE06B070BD38B5A2
:107A800004460D4601F0A9F880208DF800008DF81D
:107A9000014029460DF102000CF039FB042100F0F1
:107AA00001F831BD00A810F01BBC10B584B004462D
:107AB00046208DF8040001A821784170617881701A
:107AC0000DF1070000F08AF84048A1780068085CD2
:107AD0008DF809000023002000900621A27801A85B
:107AE00010F006FC1FBD80B598208DF800008DF8C1
:107AF000011000A802219DE71FB50C4692218DF8C8
:107B00000410082201460DF10500FCF752FE0DF1AC
:107B10000D0000F063F82D480068205C8DF80F0020
:107B200000230020009022460C21D8E700B5274A08
:107B3000126883B0825C8DF8051093238DF80620BF
:107B400000218DF80430009102460023032101A892
:107B500010F0CEFB07BD80B507F096FABDE80140F6
:107B600005F078BF1149002008707047A7FF00207A
:107B700048FD002082FD00200FF3002084FD00203E
:107B80000CF2002008F20020F4FE0020D5FF0020B7
:107B900002F40020F4F20020F6F2002074FD002030
:107BA00044FD002048FC0020E8FE0020D9FF002012
:107BB00054F20020E1FF0020D8F1002074F20020F0
:107BC00064F2002014F3002071F20020C8F10020BC
:107BD00058F2002080FD0020E8F2002010B5044695
:107BE00013F0E4F8601CBDE8104013F0E1B80000A9
:107BF0001102090A030607081A2B2C1910131B146B
:107C0000151C1D2021222A2E333435FFE0F10020DF
:107C10001CF2002092FF002091FF00205CF2002067
:107C20000CF20020F8F1002004F2002090FF002068
:107C30000EF3002044FD0020E1FF002072F200203E
:107C400077F2002078F2002076F200209AFF0020E0
:107C500066F2002094FF002089F3002079F20020D2
:107C60007AF2002098FF00209CFF002020F40020E2
:107C700028F20020D4FD002038B504461046002923
:107C800001461A46204602D013F001F901E013F034
:107C9000CFF80546002C1EBF04980028A04203D050
:107CA0002146142213F060F9284632BD954B1B780B
:107CB00002467020002B1CBF104608F061BD7047C3
:107CC0001CB504462078F8B902202072A0780A2852
:107CD0000AD0102810D101A813F09DF96070BDF8EA
:107CE0000400ADF8000004E00020607000A807F078
:107CF00001FF0120207001E0207828B1BDF80010BC
:107D000004F109000CF003FA13BD38B504462078DD
:107D1000002804BFA078102812D104F10901012025
:107D20000CF007FA054604F10D000CF0E9F9ADF886
:107D3000000000A9284613F043F96070012020706C
:107D400031BD71490978027856290CBF0121002103
:107D500022BB827001220270427832B96B4A09B1AB
:107D6000117811E0C07810707047052A05D1684A73
:107D700061B1117841F0500106E0062A0CD1654A44
:107D800021B1117841F06001C1707047C17801F0F4
:107D90000F01C1701170704700210170704710B55C
:107DA00004462078B8B900F045F806D01E2807D060
:107DB000242807D0362808D00BE005F069FD06E03E
:107DC000554800E05548007801E055480088A080FB
:107DD00010BD0020207010BD10B50446207840BBB7
:107DE00000F028F806D01E280AD0242812D0362801
:107DF00019D01CE0A088BDE81040C0B205F04CBD11
:107E00004848A188007888420AD3C9B242480DF098
:107E100071FC06E0A1880B2902DA4048017010BD10
:107E20003620A07010BDA0883D49088010BD0020FC
:107E3000207010BD012020700020A07060780D28F7
:107E4000704700002DE9F0431546012D87B08046AC
:107E500089461C4608D101210020022650EA010271
:107E60002A4F0AD1032618E0052DF4D00021032D56
:107E700018BF072DF0D10120EFE73A78052A0AD87C
:107E8000DFE802F003060509083C012605E060B1C1
:107E9000002602E00E46022E07D007F0EFFC8442D7
:107EA00003D02146404612F058F801962346387810
:107EB00000902A4649464046FCF78AFD06462420A3
:107EC0008DF8080041460DF109000CF020F9082258
:107ED00049460DF10B00FCF76CFC8DF813508DF842
:107EE000146021460DF115000CF011F90F2102A8C4
:107EF00010F0F6F9304607B0BDE8F0830028C7D08F
:107F0000B0E70000D9FF0020A7FF00200BF30020FE
:107F100096FF00206CF2002095FF00209BFF0020C0
:107F20006EF20020717B020880B56E218DF8001082
:107F30008DF80100022100A810F0D2F901BD10B5A2
:107F400084B00C469B218DF80010082201460DF1EB
:107F50000100FCF72EFC8DF809400A2100A810F062
:107F6000BFF91FBD30B58BB004460D462A22FF2154
:107F700000A8FCF761FC214628460DF066FE044689
:107F8000FF2C08BF182505D013F086F805462046BB
:107F90000DF0D8FD28460BB030BD10B54E4C217801
:107FA000FF29A8B008BF702020D0002000904A23ED
:107FB00000220AA80DF065FE0020009025232178FC
:107FC0004A221DA80DF05DFE002000902423217898
:107FD0006F2201A80DF055FE20780DF0B3FDFF20B3
:107FE000207001AA0AA91DA808F09EFD28B010BDA6
:107FF000F8B5394F04463878FF280D46164608D1A3
:10800000932100200DF021FEFF28387001D135208A
:10801000F2BD01200090334639782A4620460DF003
:1080200030FE0020F2BD10B50446A6B0207860BB3B
:1080300001202070A0781A2804D024D31C2815D041
:108040000AD320E04A2204F1090113A8FCF7B1FB8E
:108050004A22002113A812E0252204F1090109A8EF
:10806000FCF7A7FB25224A2109A808E0242204F1F5
:10807000090100A8FCF79DFB24226F2100A8FFF74F
:10808000B7FF607001E00020207026B010BD0178BD
:10809000002904BF417829290CD1104909785229B7
:1080A00004D10F4909788180002100E038218170D6
:1080B00001210170704710B5074C2078FF281FBFC1
:1080C00006490978AB29ED2903D00DF03BFDFF20CF
:1080D000207010BD000000000DF30020A7FF00205D
:1080E00097FF002011B1012903D004E0114608F0E8
:1080F00092BE08F0DBBE0220704710B5044620781F
:10810000002804BF607808280ED11448007856284B
:1081100003D109F0ABFAE07002E0E07809F0ACFAC4
:108120000020A0700120207010BD0178A1B9417815
:108130002F2908BF0A4902D030290DD1094959B168
:10814000064A1278522A07BF0978818082880A700D
:10815000002181700121017070470000A7FF0020FD
:108160007CF200207DF2002030B58FB005460C4631
:108170003B22002100A8FCF75FFBB6208DF8000031
:108180000DF10101284600F077F800A8DCB10021CC
:1081900080F82910082221460DF12A00FCF709FB7E
:1081A0000DF12905207A68720DF1330061890BF019
:1081B000AEFFA1890DF135000BF0A9FFA07BA873DC
:1081C000E07BE87302E0012180F829100DF139000D
:1081D000FFF704FD3B2100F00CF80FB030BD80B577
:1081E000B7218DF800108DF80100022100F001F890
:1081F00001BD00A810F074B810B586B00446B820D0
:108200008DF800000DF1010021880BF080FF6188DE
:108210000DF103000BF07BFFA1880DF105000BF0C1
:1082200076FFE1880DF107000BF071FF21890DF158
:1082300009000BF06CFF61890DF10B000BF067FF7B
:10824000A1890DF10D000BF062FF0DF10F00FFF79A
:10825000C5FC1121FFF7CDFF06B010BD00B58BB0F6
:10826000BB218DF800100DF1010100F005F8292166
:10827000FFF7BFFF0BB000BDF8B504460D46A07870
:108280002870681C21880BF042FF0822211DE81C81
:10829000FCF78FFAE078E87204F11007207B28736E
:1082A00005F10E06607B687331463A6801200BF0D9
:1082B00032FF7A68311D01200BF02DFF398906F15C
:1082C00008000BF024FF082204F11C0105F118003E
:1082D000FCF76FFAA18C05F120000BF018FFE18C80
:1082E00005F122000BF013FF94F8280085F8240014
:1082F00094F8290085F8250094F82A0085F82600CE
:1083000094F82B0085F82700F1BD0000F8B5B84DB2
:108310000446286880782B38022801D90D382ED1E0
:10832000FCF71AF806462868B249C01C086000210C
:10833000312010F092F805464FF6FF770BE005F17B
:108340000D0080B20FF0C1FFB04213D0294631209A
:1083500010F083F80546BD42F1D1002100E0294626
:10836000322010F07AF80546BD4208D00FF0ADFF7C
:10837000B042F4D1A420FCF708F800202070F1BD31
:1083800038B50446002100E029463F2010F065F88A
:1083900005464FF6FF7085420CD028460FF095FF3A
:1083A0000228F1D1681C80B20FF08FFFA042EBD100
:1083B000012032BD002032BD2DE9F84380464FF048
:1083C00000090021452010F048F804468A4D4FF678
:1083D000FF7609E0FF21B8B20FF07CFFA146A1B201
:1083E000452010F03AF80446B44223D004F11007B7
:1083F000B8B20FF06AFF4045F0D120460FF065FF9C
:10840000022818BF0328E5D1241FA0B20FF05DFF9A
:1084100001462888401A32182A8092B27748009282
:10842000091900784B1C9BB20246A1B20DF014FE54
:108430004C46D3E7BDE8F183F0B5714F3D788BB082
:1084400006466C240EF074FA0EF04CFA6D48007873
:10845000112806D0122830D1718870780EF09DFD59
:1084600058B3707804A90EF037FD88B1BDF810003C
:1084700040F20911884204BF7088B0F5006F07D13F
:10848000701D12F014FEB52802D0B0B9002414E01B
:108490000124002500E06D1C3878EDB285420CD235
:1084A00006A9284600F08FF99DF818000028F2D19F
:1084B0003146284600F092F9044631208DF800003C
:1084C00000AF307878707078B8700DF10300718863
:1084D0000BF01DFE307978710822711D0DF1060038
:1084E000FCF767F98DF80E508DF80F40102100A8A9
:1084F0000FF0F6FE20460BB0F0BD38B504466C25F3
:108500000EF016FA0EF0EEF93E48007811280DD163
:108510002046FFF735FF08B1752507E0204600F03B
:10852000A7F9050004BF2046FFF746FF32208DF86B
:1085300000008DF801408DF80250032100A80FF0D3
:10854000CFFE284632BD38B504460D46FFF718FF6A
:1085500008B1752510E03DB10EF0C0F968732946E9
:10856000204600F03BF902E0204600F081F90500CA
:1085700004BF2046FFF720FF284632BDE3E7002175
:10858000E1E721490978027856290CBF0121002131
:10859000002A04BF4278012A0AD11A4A002919BFC9
:1085A0001178C170C17811700021817001210170B2
:1085B000704710B504462078002804BF607804286E
:1085C00014D111490E480978522903D10078A080AE
:1085D000002008E00D4AA18812788A4232BF362076
:1085E000C9B20DF087F8A0700120207010BD000006
:1085F00060FC002030F80020F2FE0020E6F30020AE
:1086000093FF00200CF30020A7FF00206F7B0208DF
:108610001FB50C4602460D23152100A80FF020F9C6
:108620000D2200A92046FCF7C4F8207840096073A9
:10863000207800F01F0020701FBD30B585B00446C3
:108640000D460D2200A8FCF7B4F89DF80000697BE8
:1086500040EA41108DF800000D2300AA21461520A4
:108660000FF025F905B030BD2DE9FF410446002586
:10867000DFF88064DFF8807413E03068A84630F8D3
:108680001800A0420CD100A9284600F09CF89DF8E3
:108690000000022804D031684FF6FD7021F8180060
:1086A0006D1CEDB238788542E7D3BDE8FF812DE936
:1086B000F04588464FF6FF7AD04585B0044605D18F
:1086C00000F0D0F910B907F0D9F833E0DFF82464EE
:1086D000DFF8247400250CE0D04508D0306830F86D
:1086E0001510414504BF4FF6FD7120F81510681CA8
:1086F000C5B2387885421CDA306830F8150000F0D1
:108700000FF9F4DA00A92846FFF782FF0822214674
:108710000DF10500FCF797F80028DDD13068D04551
:1087200002D130F8150005E020F8158012F0FCFCAD
:10873000DDE7504605B0BDE8F0852DE9FF478046EE
:1087400089460026DFF8B473DFF8A843DFF8A853A2
:1087500015E02068B24630F81A0000F0E1F80DDAB2
:1087600000A93046FFF754FF082241460DF10500ED
:10877000FCF769F810B938680AF80090761CF6B270
:1087800028788642E5D3BDE8FF87DFF868130968DB
:1087900031F8100070471FB50C46DFF85C130978FC
:1087A00088420FD2D349096831F810104FF6FE7293
:1087B000914207DA00A900F006F821460DF1050004
:1087C000FFF775FF1FBD80B5CB4A1278904201D3E9
:1087D000692002BDFFF71CFF002002BD70B50446F2
:1087E0000D4623460022B3A1032013F009F928788F
:1087F00018B92046BDE870403AE0BF48007884428E
:1088000001D3692070BD204613F0AAF808B1752085
:1088100070BD0EF041F86873681D06F0C8FD06468D
:108820004FF6FF71681DFFF742FF02462978334675
:10883000204600F006F829462046FFF7FEFE0020FD
:1088400070BD10B54FF6FF7409B9224608E0032940
:1088500008BF4FF6FE7203D0A24208BF4FF6FD726A
:10886000A449096821F81020A4490968435410BD9F
:1088700030B505462C4685B0234601228DA1032044
:1088800013F0BEF89C480078854228BF69201AD2B0
:10889000284613F065F808B1752014E000A92846B1
